:1000000000308A0087280000FF00030E8301A10052
:100010000A08A0008A010408A2007708A300780853
:10002000A4007908A5007A08A600831383128C30F7
:100030008400801E1D288C1A2E2822088400230884
:10004000F7002408F8002508F9002608FA0020081F
:100050008A00210E8300FF0E7F0E09008A110A120A
:1000600031288C1E37288C1E33281A08A9008C12C0
:100070008A110A121D288316081083120814831689
:1000800088108312881083160811831208158316AE
:100090008811831288118A110A12B4288316081055
:1000A000831208108316881083128814831608118F
:1000B0008312081183168811831288158A110A1277
:1000C000B828831608108312081483168810831228
:1000D0008810831608118312081183168811831261
:1000E00088158A110A12BC2883160810831208107A
:1000F000831688108312881483160811831208153A
:1001000083168811831288118A110A12C0280308E5
:100110001F398300813083169900A63098009030F3
:100120008312980083161F149F141F159F11073008
:100130009C0083138312A701A801C0308B0483168F
:100140008C160810831208108316881083128810EA
:1001500083160811831208118316881183128811DF
:100160002908313C03193B282908323C03194E2841
:100170002908333C031961282908343C03197428E1
:04018000B028630040
:02400E003A3F37
:00000001FF
;PIC16F877A
;CRC=6EE0  CREATED="04-Thg4-21 14:04"
